:100000000C9435010C9452010C9452010C94520141
:100010000C9452010C9452010C9452010C94520114
:100020000C9452010C9452010C94931A0C94671B7B
:100030000C946A150C9452010C9452010C945201C8
:100040000C9452010C9452010C9452010C945201E4
:100050000C9452010C94F0150C9452010C94520122
:100060000C9452010C9452010C9452010C945201C4
:100070000C9452010C9452010C9452010C945201B4
:100080000C9452010C9452010C9452010C945201A4
:100090000C9452010C9452010C9452010C94520194
:1000A0000C9452010C9452010C945201075A095AB3
:1000B0000B5A0D5A115A165A1A5A1C5A1E5A205ABD
:1000C000225A085A0A5A0C5A0E5A125A175A1B5ACE
:1000D0001D5A1F5A215A295A00000000015A0F5A6E
:1000E000105A185A195A025A00000000000000D095
:1000F000D0D0D0D0D00101020408102041424448A1
:1001000048000000484850608182848890A0C1C2A5
:10011000C4D0D0D0D0D0D0C8000000000000000073
:1001200000000000000000000000000000001003BC
:10013000540068006500200055006E006900000052
:100140001E037300740065006E006F006B00650095
:10015000790062006F0061007200640073000000AB
:100160000403090409027800040100A0FA0904004C
:1001700000010301010009211101000122400007D3
:1001800005810308000109040100010300000009C2
:100190002111010001223B00070582032000010814
:1001A0000B02020202010009040200010202010026
:1001B0000524001001042402020524060203070599
:1001C00083030800FF09040300020A00000007057A
:1001D0000502100005070584021000051201000247
:1001E000EF02010853230100010001020001050193
:1001F0000906A1018506050719E029E71500250173
:100200009508750181020507190029EF15002501E0
:1002100095F07501810205081901290595057501FB
:100220009102950175039101C005010906A101051F
:100230000719E029E7150025019508750181029548
:1002400001750881010507190029FF150026FF0027
:1002500095067508810005081901290595057501A0
:100260009102950175039101C00011241FBECFEFCB
:10027000DAE0DEBFCDBF11E0A0E0B1E0E6E5FEE3ED
:1002800002C005900D92A234B107D9F722E0A2E492
:10029000B1E001C01D92A035B207E1F70E949F10A6
:1002A0000C94131F0C94000081E00C94E61081E084
:1002B000089581E008950C94590108950C945D010E
:1002C0001F93CF93DF9300D000D00F92CDB7DEB74E
:1002D00049835A836B833091450189819A81311119
:1002E0001DC06623B9F02223A9F00E945F07182FD2
:1002F000682F89819A810E940B0769817A81812FF9
:100300000F900F900F900F900F90DF91CF911F9152
:100310000C94120E0E943707182FEFCF0E945F0730
:1003200069817A81EDCFFC01262F40815181628164
:10033000738184810C94600181E00895CF93DF93F1
:10034000EC0160E00E949301BE01DF91CF910C941B
:100350005E010C94420F0C94450F08950E94B8055D
:100360000E94AD012FEF84E39CE02150804090403B
:10037000E1F700C000000C9414160F931F93CF9365
:10038000DF938C0161E00E949301EC01B8010E94AF
:100390005B018823D9F1B801CE010E94F8108823AF
:1003A000A9F1B801CE010E94C813882379F1B801E0
:1003B000CE010E94F511882349F1B801CE010E94B7
:1003C0003213882319F1F8018281882361F0CB353B
:1003D000FDE5DF0721F170F4C115ECE5DE07A1F0C2
:1003E000CF3DDC45C9F0C801DF91CF911F910F913E
:1003F0000C945701CC358DE5D807A1F0CD35DD45FE
:1004000091F70E94940BEFCF0E94AE0180E0DF9144
:10041000CF911F910F9108950E944E0CF7CF0E942B
:100420009D0BE1CF0E94A00BDECF0E944E150C94D5
:100430002D020E9430020C94521508950C941D0256
:1004400081E008950C9420020895CF93C82F0E9454
:100450001E028C2FCF910C94220280E00C94250276
:100460000E9424140C9425020E94241490914401AB
:10047000981721F0809344010C9425020895CF939E
:10048000DF93CDB7DEB72B970FB6F894DEBF0FBE64
:10049000CDBF4F83588769877A878B8761110E9408
:1004A000E20A1E821D8285E0FE013796DE0111966A
:1004B00001900D928A95E1F78C819D81892B89F4B9
:1004C00049815A816B817C818D819E810E94030AC2
:1004D0002B960FB6F894DEBF0FBECDBFDF91CF9144
:1004E000089589819A8189238F3F51F3CE01019626
:1004F0000E949C018111E4CFEBCFFC0180819181AE
:100500000C94A107CF93C82F882309F469C08238BF
:10051000C1F40E94241481FD63C089E30E949D0AF6
:100520000E94020B2FEF81EE94E02150804090401A
:10053000E1F700C0000089E30E94A40ACF910C9467
:10054000020B8338A1F40E94241480FD49C083E586
:100550000E949D0A0E94020B2FEF81EE94E0215031
:1005600080409040E1F700C0000083E5E5CF84388B
:10057000A1F40E94241482FD33C087E40E949D0AE6
:100580000E94020B2FEF81EE94E0215080409040BA
:10059000E1F700C0000087E4CFCF8CEF8C0F813AE9
:1005A00090F46C2F80910201909103010E948A14B3
:1005B000882329F08C2F0E94A40A0E94020B8C2F02
:1005C0000E949D0ABBCF80E28C0F883048F4C77030
:1005D00081E001C0880FCA95EAF70E94C50AAECF34
:1005E000CF910895882309F44BC0823871F40E949A
:1005F000241481FF45C089E30E949D0A0E94020BDA
:1006000089E30E94A40A0C94020B833859F40E94D7
:10061000241480FF35C083E50E949D0A0E94020BCE
:1006200083E5EFCF843859F40E94241482FF28C058
:1006300087E40E949D0A0E94020B87E4E2CF9CEFB0
:10064000980F913AF0F290E2980F983050F487703A
:1006500091E001C0990F8A95EAF7892F0E94CB0A91
:10066000D2CF9BE5980F933020F490E080E00C947B
:100670004A14885A873120F490E080E00C9460148A
:1006800008951F93CF93DF93182FEB010E948202EE
:10069000209731F4812FDF91CF911F910C94F202BA
:1006A0008FE99FE00197F1F700C000002197F0CF9C
:1006B00070E060E0893311F460E570E00C94410370
:1006C000882321F00E94C50A0C94020B0895882308
:1006D00021F00E94CB0A0C94020B0895BF92CF9296
:1006E000DF92EF92FF920F931F93CF93DF936C01F2
:1006F000D62FC72FFC011281F580F2949FE0F922DA
:100700000E94BB0AE82E8823B9F0E12E1123A1F044
:100710008C2F807F803421F080E28D0F8830D0F0E4
:100720008091320282FD16C082E00E94630B0E941B
:10073000BB0A91E0E82EE926BC2EB2948FE0B822E5
:10074000FBE0FB1508F468C0EB2DF0E0EB5EF04E2B
:100750000C94BE1EE12CF0CF0C2F0F70C07F11F057
:100760000295007F112399F0002359F080E28D0F4C
:10077000883010F0D11107C0802F0E94C50A0E9456
:10078000020B8D2F41C0802F0E94D50AF8CF8D2FEC
:100790000E94F202002309F43FC080E28D0F8830EE
:1007A00010F0D11104C0802F0E94CB0A03C0802F0B
:1007B0000E94DB0A0E94020B2FC00C2F0F70C07F1B
:1007C000C03211F00295007FDD2381F0D13009F4B1
:1007D00069C0112309F473C0FF2009F469C0F60150
:1007E000858180FFCECF8F70858362C08091320279
:1007F00082FF38C0112359F0002329F0802F0E9476
:10080000C50A0E94020B80E00E94820205C080E0BF
:100810000E94F2020111C7CFEB2DE850FF0B349775
:1008200020F40E9424140E942502EE2009F44BC1FA
:100830000E94B70A80FD47C1F60112820E94B10AE8
:100840000E946F06C6010E9484050E94B10ADF91D2
:10085000CF911F910F91FF90EF90DF90CF90BF90BD
:100860000C949006112389F0F11006C00E94E50A4D
:10087000802B0E946003D0CF21E0F212F7CF0E94BC
:10088000E50A802B0E94EB0AC7CFF11006C00E9438
:10089000F80A802F0E946703BFCF31E0F31609F4F6
:1008A000BBCFF5CF112331F085E08F1508F4B4CF1D
:1008B000802FDFCF94E09F1508F4AECFEACFFF2062
:1008C00041F3D93349F4FFEF27EE33E0F1502040F4
:1008D0003040E1F700C000008D2F0E94F2029CCF53
:1008E0008C2F837009F041C0111196CF4D2F429586
:1008F00046954770440F440F0D2F0F7010E030E005
:1009000020E0042E04C0000F111F221F331F0A9481
:10091000D2F760E070E0CB01D4FF0FC06FE070E071
:1009200080E090E004C0660F771F881F991F4A95EA
:10093000D2F76095709580959095C695C695C370D1
:10094000602B712B822B932BC23049F058F4C130AD
:1009500019F00E94210660CF0E940F065DCF0E9411
:1009600033065ACF0E940D0657CF8695112311F0FA
:100970008C2F8170882309F44FCF4D2F42954695D7
:100980004770440F440F0D2F0F7010E030E020E04F
:10099000042E04C0000F111F221F331F0A94D2F728
:1009A00060E070E0CB01D4FF0FC06FE070E080E04A
:1009B00090E004C0660F771F881F991F4A95D2F7F1
:1009C0006095709580959095C695C695C370602B7F
:1009D000712B822B932BC23049F058F4C13019F09F
:1009E0000E94E60619CF0E94D40616CF0E94F80690
:1009F00013CF0E94490610CFCF70112329F08C2FFE
:100A00000E946F068D2F35CF8D2F0E9467038C2F8C
:100A10000E94900601CFD23F51F160F4D03FB9F06F
:100A2000D13F81F0112309F449C0F110AACE8C2FD7
:100A30008F7121C0D33F11F1D43FA1F780913202D1
:100A400082FF26C08C2F8F71112311F314C0112344
:100A500049F084E08F1508F4DFCE8C2F8F710E944F
:100A6000B306DACE95E09F1508F4D6CEF6CF8C2FDC
:100A70008F711111CDCF0E946F06CECE112329F0B8
:100A80008C2F8F710E945A06C7CE0E945506C4CE85
:100A9000112349F0CF718C2F0E946F0663E08C2FD9
:100AA0000E94480BB9CE81E00E94630BE1E0EF1594
:100AB00008F0B2CE82E00E94630BAECEF11001CFFF
:100AC0008C2F8F71A5CFDF91CF911F910F91FF9048
:100AD000EF90DF90CF90BF9008950F931F93CF9327
:100AE000DF93EC01688179818A810E94AB078C01D8
:100AF0000E940A070E940C06B801CE01DF91CF9137
:100B00001F910F910C946E03CF93DF93EC018B81B7
:100B10009C81892B29F08881998189238F3F59F401
:100B2000DF91CF910895CE010E946D05CE01DF9136
:100B3000CF910C949E01CE010E94BD018111F3CF93
:100B40000E94BB0A882361F38A81882349F380913C
:100B5000320282FDE5CF82E0DF91CF910C94630BEE
:100B60000E94E20A0C94020B0E94AB0A0C94B0059E
:100B70000E94D20A0C94B40592959F70963091F021
:100B800058F4925F9F70923058F4803F19F030F41F
:100B9000883E30F481E008959A5FF4CF843FD1F32A
:100BA00080E00895883EB0F3813FD1F7F3CFFC0198
:100BB000808191810E94A1070C94BC05CF93DF93A3
:100BC00000D000D00F92CDB7DEB70F900F900F90EE
:100BD0000F900F90DF91CF910895CF93DF9300D0C6
:100BE00000D000D0CDB7DEB726960FB6F894DEBFA2
:100BF0000FBECDBFDF91CF91089508950C94FD05F0
:100C00000E94FE0560936301709364018093650107
:100C1000909366010C94B00508950C9400060F9310
:100C20001F9300916301109164012091650130913F
:100C30006601602B712B822B932B1F910F910C94CB
:100C400000060F931F93009163011091640120919E
:100C500065013091660160237123822393231F91E4
:100C60000F910C9400060F931F9300916301109154
:100C70006401209165013091660160277127822708
:100C800093271F910F910C9400060C94FD050C9472
:100C900045060E94470660935F0170936001809350
:100CA0006101909362010C94B00560E070E0CB01AB
:100CB0000C9449060F931F9341E050E060E070E010
:100CC0008A019B0104C0000F111F221F331F8A9548
:100CD000D2F7C901B8011F910F910C9449060F93E7
:100CE0001F9341E050E060E070E004C0440F551FE6
:100CF000661F771F8A95D2F780915F0190916001FE
:100D0000A0916101B09162018A019B01082B192B0E
:100D10002A2B3B2BC901B8011F910F910C94490656
:100D20000F931F9341E050E060E070E004C0440F77
:100D3000551F661F771F8A95D2F7CB01BA016095C0
:100D400070958095909500915F01109160012091C0
:100D500061013091620160237123822393231F91EB
:100D60000F910C9449060F931F9341E050E060E00F
:100D700070E004C0440F551F661F771F8A95D2F795
:100D800080915F0190916001A0916101B091620139
:100D90008A019B01082719272A273B27C901B80187
:100DA0001F910F910C9449060F931F9300915F01BF
:100DB000109160012091610130916201602B712BD3
:100DC000822B932B1F910F910C9449060F931F9325
:100DD00000915F01109160012091610130916201E9
:100DE00060237123822393231F910F910C94490652
:100DF0000F931F9300915F01109160012091610199
:100E00003091620160277127822793271F910F91EC
:100E10000C94490608952BE0929F800D1124982F81
:100E2000977041E001C0440F9A95EAF78695869540
:100E3000869595E0899FF0011124EA5BFE4F90E0D2
:100E400080E070E05191DF0111979B01082E02C0F4
:100E5000369527950A94E2F72170219525272423BA
:100E600025272C9301968530910561F708952BE095
:100E7000929F800D1124982F977086958695869560
:100E800025E0829FF0011124EA5BFE4F50E040E034
:100E900080E0219130E0092E02C0369527950A9412
:100EA000E2F721703327042E01C0220F0A94EAF7DB
:100EB000822B4F5F5F4F4530510559F70895BF9220
:100EC000CF92DF92EF92FF920F931F93CF93DF9316
:100ED0008C01C0905F01D0906001E0906101F090C2
:100EE00062018091630190916401A0916501B091CC
:100EF0006601C82AD92AEA2AFB2ACFE1D0E0BC2E13
:100F0000D701C6010C2E04C0B695A7959795879575
:100F10000A94D2F780FD0EC0219788F7B12C8B2D53
:100F2000DF91CF911F910F91FF90EF90DF90CF90C5
:100F3000BF900895B8018C2F0E94260E019761F38F
:100F4000EECFCF93DF93EC010E945F07BE01DF91EC
:100F5000CF910C94260E1F93CF93DF93EB019091CA
:100F60004501992331F0CB01DF91CF911F910C9472
:100F7000A107882379F0CB010E945F07182F682F03
:100F8000CE010E940B07BE01812FDF91CF911F91EF
:100F90000C94260ECB010E943707182FF4CF1F9315
:100FA000CF93DF93C091670116E0809168018C13A5
:100FB00004C0DF91CF911F910895D0E01C9FF001F4
:100FC0001D9FF00D1124E759FE4F40815181628130
:100FD0007381848195810E94ED052196C770E5CFCC
:100FE0004091990150919A0160919B0170919C01EF
:100FF00080919D0190919E010C94ED05FF920F93BD
:101000001F93CF93DF9380919E01807FD1F48091D5
:101010009B018823B1F08091670110916801609174
:10102000990170919A01A0919C01B0919D01062FA8
:101030000723C0910001D091010196E0F92E181309
:1010400006C0DF91CF911F910F91FF90089590E01E
:10105000109711F00F3F19F401968770F0CFF89EAA
:101060009001F99E300D1124F901E759FE4F41819D
:101070004713F2CF40814613EFCF42814111ECCFAD
:10108000438154814A1B5B0B4C175D0728F7809105
:101090009E018F70806180939E01F901E259FE4F9D
:1010A00080818F708061808389E991E00E9484054E
:1010B000DF91CF911F910F91FF900C94CF07AF92CA
:1010C000BF92CF92DF92EF92FF920F931F93CF9335
:1010D000DF93CDB7DEB761970FB6F894DEBF0FBED2
:1010E000CDBF8C0185E0F801DE011D9601900D92C7
:1010F0008A95E1F7F801E28089E9C82E81E0D82ECF
:1011000060919C0170919D016115710509F45FC1A9
:101110009091990120919A01892F82238F3F09F4A0
:1011200056C140815181A380B480F0909B01F501AC
:10113000E61BF70BBF01E0910001F0910101FF20D8
:1011400009F4F6C080919E01382F307F6E177F071B
:1011500008F0AFC0311179C0FE2C251323C09413C1
:1011600021C0E1101FC08F70806180939E010E949A
:10117000F007C6010E94840580919E01F8018583D5
:101180008F2D61960FB6F894DEBF0FBECDBFDF91F5
:10119000CF911F910F91FF90EF90DF90CF90BF9074
:1011A000AF900895AB2829F0842F85238F3F09F055
:1011B00027C180E0F82FF170DF2E80FF3CC08091C6
:1011C00067012091680136E0821315C04D875E8764
:1011D0008D859E850E94A107292F22952F70223090
:1011E000F0F0243018F59F70F1F0F8019581907FB0
:1011F000D1F4D12C1EC090E0389FF001399FF00D42
:101200001124E759FE4F6181651306C060816413A4
:1012100003C062816E110FC001968770D5CF9F7099
:1012200011F0882331F3805E883018F3C8010E94E2
:101230008405FD2CA5CFEE2009F4A2CF80919E015C
:10124000816080939E01F12C9BCF251306C09413DF
:1012500004C0F801EE2009F487C0C8010E94D70538
:10126000882319F1EE2009F180919E01803270F0FF
:101270002091990130919A0138872F831986BB8676
:10128000AA868C87CE0107960E94840586E0F80125
:10129000A9E9B1E001900D928A95E1F70E94FE075D
:1012A0000E94F007FF24F3946BCFC8010E948405CD
:1012B000F9CF311113C07A2DB98AA88A6E2D898988
:1012C0000E94DE0589E991E00E94840586E0F6012E
:1012D00011928A95E9F70E94F007B5CF25130FC048
:1012E00094130DC0E1100BC0F8018583C8010E9462
:1012F000840586E0F60111928A95E9F741CFC8018D
:101300000E94D705882389F2EE2079F280919E0110
:10131000803208F4BBCF2091990130919A013A8331
:1013200029831B82BD82AC828E83CE010196ACCF15
:101330006E177F0708F03EC0FE2CEE2009F4B5CFF3
:1013400025132AC0941328C080919E0180FD1BC0E4
:10135000982F907FC1F0F8018583903F31F0982F4E
:10136000907F905F8F70892B8583C8010E948405D0
:1013700086E0F801A9E9B1E001900D928A95E1F7C4
:101380000E94F007FDCE86E0F801A9E9B1E00190E6
:101390000D928A95E1F7F4CEC8010E94D70581111C
:1013A00075CF80919E01816080939E01C8010E944B
:1013B0008405E6CE7A2DB98AA88A6E2D89890E9485
:1013C000DE0586E0F60111928A95E9F7D9CFEE2085
:1013D00009F46BCFC8010E94D705F82E882309F4C1
:1013E00064CF86E0F801A9E9B1E001900D928A95F9
:1013F000E1F789E991E00E947D020E94FE07C0CFDB
:1014000081E08E25D7CE1F93CF93DF93CDB7DEB784
:101410002C970FB6F894DEBF0FBECDBF4F83588711
:1014200069877A878B879C87CE0107960E945F0821
:10143000882369F08A859B85892B39F04F815885EF
:10144000842F85238F3F09F071C016E05FC086E0CE
:10145000FE013796DE01119601900D928A95E1F713
:101460008A859B85892B89F38F81988589238F3F76
:1014700061F32091680130E0C901019687709927D6
:10148000409167014817190671F40E94B80510923F
:1014900068011092670186E0E9E9F1E0DF011D9241
:1014A0008A95E9F7D2CF96E0929FD001939FB00D35
:1014B0001124A759BE4FFE01319601900D929A95C5
:1014C000E1F7809368010E94CF07BFCF819FC001E1
:1014D000112487599E4F0E945F088823E9F0E0910C
:1014E00067011E9FF0011124E759FE4F4081518191
:1014F00062817381848195810E94ED0580916701ED
:1015000090E0019687709927809367018091670129
:10151000909168018913DACF2C960FB6F894DEBF4C
:101520000FBECDBFDF91CF911F91089569857A8558
:101530008B859C850E94ED0588CF682F80910201E4
:10154000909103010C940A15682F809102019091EB
:1015500003010C94151580910201909103010C94E4
:1015600020158091BF018595859585950895809179
:10157000BF01877008959091BF01977081E009F4D1
:1015800080E008958091E20108959091E201892B15
:101590008093E201089580959091E20198239093C1
:1015A000E20108951092E20108959091E101892BE2
:1015B0008093E101089580959091E10198239093A3
:1015C000E10108951092E10108958091C00108950C
:1015D00008950C94E80A9091320292FD08C090910F
:1015E000C001981721F08093C0010C94E90A089576
:1015F0008091C001882329F01092C00180E00C94F2
:10160000E90A0895CF93DF93E0910201F09103017D
:101610008091E2018083E0910201F09103018081D9
:101620009091E101892B80839091C001992381F0F1
:10163000E0910201F09103018081892B80838091E8
:101640000201909103010E94761481110E94F80A10
:10165000C0910201D091030140E250E06FE971E0D6
:10166000CE010E94C41E892B69F080E2FE01AFE921
:10167000B1E001900D928A95E1F7CE01DF91CF9113
:101680000C943014DF91CF91089508950C94450B7C
:101690009091320292FD10C098E0899F9001112430
:1016A000622B6093BF010E946F068091BF018595F8
:1016B000859585950C94460B0C946F061092BF018E
:1016C00080E00C94460B9091BF0180958923809314
:1016D000BF01282F277091F4282F082E000C330B00
:1016E0009217130659F09091320292FD07C085952A
:1016F000859585950E9490060C945E0B08959091B7
:10170000320292FB222720F9281769F080FB92F918
:101710009093320280913102909132020E94CA0B62
:1017200082E00C94630B08958091320282FB88273B
:1017300080F991E089270C947F0B81E00C947F0B5A
:1017400080E00C947F0B6FEF7FEF90E080E00C94D3
:10175000FD1E90E080E00E94D91E21E0893E9E4F50
:1017600009F020E0822F089582E090E00C94D11ED1
:1017700083E090E00C94D11ECF9384E090E00E942F
:10178000D11EC82F82E290E00E94D11E982F8C2F8C
:10179000CF910895CF93C92F682F84E090E00E94E5
:1017A000DF1E6C2F82E290E0CF910C94DF1EAB0124
:1017B000BC018FE090E00C94F11EAB01BC0183E111
:1017C00090E00C94F11E60E070E0CB010C94DD0B16
:1017D00060E070E0CB010E94D70B0C94E30B69EE44
:1017E0007EEF90E080E00E94FD1E60E082E090E0ED
:1017F0000E94DF1E60E083E090E00E94DF1E1092F6
:10180000630110926401109265011092660160E01C
:1018100084E090E00E94DF1E60E082E290E00E949F
:10182000DF1E60E085E090E00E94DF1E60E086E061
:1018300090E00E94DF1E6FEF87E090E00E94DF1EC5
:1018400040E050E0BA0188E090E00E94F11E60E0C4
:101850008DE090E00E94DF1E40E050E0BA0188E198
:1018600090E00E94F11E60E087E190E00E94DF1EA0
:1018700040E050E0BA018CE190E00E94F11E70E07F
:1018800060E080E290E00E94FD1E40E050E0BA017E
:1018900088E190E00E94F11E0C94E80B0C94EF0B91
:1018A000682F8EE090E00C94DF1E0E94D5156093A7
:1018B000ED017093EE018093EF019093F00160933E
:1018C000E9017093EA018093EB019093EC01089594
:1018D00085B7806885BF85B7806885BF08950895FE
:1018E00008950C94700C08950C94730C0E94680C6D
:1018F00084E09FE00E941A140E946F0C0C94710CFB
:1019000081E008950C94800C089508950E94840C41
:101910000C94850C0E941E0F0C9424020E94C0158A
:101920000E94F90F0E948A0C0E94D910E1E3F2E0B4
:1019300080818068808380913102909132020E9480
:10194000CA0B0E9473170C94740C7F928F929F9213
:10195000AF92BF92CF92DF92EF92FF920F931F93BD
:10196000CF93DF93CDB7DEB72A970FB6F894DEBFDB
:101970000FBECDBF0E940E10A82E81110E94550CE3
:1019800053EE852E51E0952E10E000E0702E802F52
:101990000E94470F6C01F401E190F1904F01E816AD
:1019A000F90609F453C08091F10181FD0E94500FA6
:1019B000C7018C259D25B12CEE24E394F12C9C01CC
:1019C0002E213F21232BE1F10E94820C8823A9F0D4
:1019D000BE827F82CE20DF2081E0CD2809F480E026
:1019E00088870E94C9158160782F9A8789874E81E0
:1019F0005F8168858A850E943F02000F111FF801F0
:101A0000ED51FE4F80819181E826F926F182E08236
:101A100081E0A11001C080E02A960FB6F894DEBFE5
:101A20000FBECDBFDF91CF911F910F91FF90EF902F
:101A3000DF90CF90BF90AF909F908F907F90089550
:101A4000B394EE0CFF1CFBE0BF12B9CF0F5F1F4F2A
:101A50000330110509F09ACF8FEF89838A831B82A7
:101A60000E94C9158160782F9D838C8349815A819A
:101A70006B818D810E943F02CBCF0E94A50C0C94FC
:101A80003402CF93DF930E942A0EEC01811523E5E7
:101A9000920790F5811532E5930708F096C08115FD
:101AA0009042C8F4C11581E0D80788F4C53AD10541
:101AB00048F4C430D10558F4C130D10541F0D0E02C
:101AC000C0E005C0CE01805E91090897C0F7CE0145
:101AD000DF91CF910895C11591E5D90708F070C045
:101AE000C11520E5D20708F04EC0C11530E4D30778
:101AF00030F3DF70D06AEBCF811546E59407F0F440
:101B0000C11585E5D80708F075C0C11594E5D9075A
:101B100008F06BC0CE018370992721E030E002C04D
:101B2000220F331F8A95E2F7C695C69590E2C99FAA
:101B3000E0011124C22BD32BDA68C9CF81152AE525
:101B4000920778F4811539E5930708F05EC0811596
:101B500048E5940708F4B3CFD82FCC27C06FD06ADC
:101B6000B6CF90568115904208F0A9CF8D2F8F7176
:101B70000E94C10E90E0982F882788279F719C01B2
:101B80002C2BE90140C0CE01E4E096958795EA95BB
:101B9000E1F783702C2F26952695237040E2249F31
:101BA00090011124382B8C2F8370C1E0D0E002C04B
:101BB000CC0FDD1F8A95E2F7C22BD32BDC6887CFD1
:101BC000DC2FCC27C16FD06A82CF8370992721E0A8
:101BD00030E002C0220F331F8A95E2F7C695C69502
:101BE00080E2C89FE0011124E7CFDC2FCC27C46F2F
:101BF000D06A6DCF8C2F0E94C10EC82FD0E0DC2F91
:101C0000CC27CC27DF71D06262CF8F700E94C10ECB
:101C100034E0D695C7953A95E1F7CF709C2FEC014B
:101C2000D06955CF972F70E02BE0929F600D711D0A
:101C30001124FB0191E2899FE00DF11D1124EE0FAB
:101C4000FF1FE455FF4F8591949108950E94120E55
:101C50000C94410D82389105B1F1B0F481339105B6
:101C600009F475C048F48932910509F469C08A32D3
:101C7000910509F473C008958533910509F459C09D
:101C80008933910501F10895833E9105A9F138F456
:101C9000803E9105F9F0823E910549F10895863E16
:101CA0009105A9F1873E9105C9F1843E910519F589
:101CB0002091320221FF1FC08091310284FD14C0A7
:101CC00087EE90E00895209131022370A1F080EE1C
:101CD00090E008952091310220FD47C030913202FA
:101CE00030FF09C024FF44C090E080E004C0209190
:101CF000310222FDF7CF08952091310222FD3BC031
:101D00003091320230FDE3CF24FFF5CFEDCF2091AB
:101D1000310223FFF0CF24FDE7CFD2CF2091310253
:101D200023FD2CC03091320231FFEECF84EE90E0E3
:101D300008952091310225FFDECF89E290E00895D9
:101D40002091310225FFD7CF85E390E008952091BF
:101D5000310226FFD0CF8AE290E00895209131022F
:101D600026FFC9CF81E390E0089589E390E00895CC
:101D700083EE90E0089582EE90E0089586EE90E084
:101D800008959091310292FF06C0282F28712830C3
:101D9000F9F4877F846093FF06C0282F28712831CB
:101DA000F1F4877E84612091320220FF06C0382F33
:101DB00038713830D9F4877F816021FF06C0282F21
:101DC00028712831D1F4877E816194FD877E089542
:101DD000282F24712430F9F68B7F8860DCCF282FE0
:101DE0002471243101F78B7E8861DDCF382F31716A
:101DF000313019F78E7F8860E0CF282F2171213193
:101E000021F78E7E8861E1CF80E008950C94A30BCA
:101E10000E940E108FE39CE90197F1F700C00000CB
:101E20000E940E1080E00E94470F80FF04C00E94B5
:101E3000060F0C94141608950C94080F0E94A90B19
:101E4000811102C00E944E0C0E94B40B8093F101DC
:101E50000E94BC0B90933202809331020E941C0FAF
:101E60000E94B80B682F70E090E080E00E940D06A1
:101E700060915F01709160018091610190916201B8
:101E80000C9447060C94540108950C94440FE82FC9
:101E9000F0E0EE0FFF1FE75CFD4F80819181089518
:101EA000089580EA8A95F1F7089500C008950C948A
:101EB000510FF894E82FE295EF70F0E031A1282F50
:101EC0002F7081E090E001C0880F2A95EAF7982FE3
:101ED0009095932391A392A1892B82A3789408953E
:101EE000CF93DF9384EF0E94590F82E30E94590F32
:101EF00086E30E94590FC4E3D1E089918F3F11F02E
:101F00000E94590F81E0CF33D807B9F7DF91CF9105
:101F10000895AF92BF92DF92EF92FF920F931F93BB
:101F2000CF93DF938C01D62EC62FD0E0CE01815CFB
:101F30009E4F7C01FC0120812F3F09F44DC0F89495
:101F4000E22FE295EF70F0E031A12F7081E090E098
:101F500001C0880F2A95EAF7932F982B91A392A19D
:101F60008095892382A378940E94550FE4E3F1E0E1
:101F70004FE351E021E030E0B12CA12C61916F3FA3
:101F8000A9F1A62FA295AF70B0E090968C9190E049
:101F90006F7002C0959587956A95E2F780FD26C01F
:101FA000C901A82AB92A220F331F4E175F0731F73C
:101FB000F70180818F3F11F00E94590F61E0A11459
:101FC000B10409F460E08D2D0E94570FCC0FDD1F86
:101FD000C00FD11FB982A882DF91CF911F910F91BD
:101FE000FF90EF90DF90BF90AF90089590E080E079
:101FF000D8CF0E94700F86E0E9E3F2E0DF01982F6E
:102000001D929A95E9F7E3E3F2E0DF011D928A95CC
:10201000E9F783E00E9459100C94A901FF920F93F5
:102020001F93CF93DF9300D000D000D0CDB7DEB7A1
:102030008E010F5F1F4F86E0F80111928A95E9F734
:1020400060E0C8010E94890F61E0C8010E94890F09
:1020500062E0C8010E94890F46E050E0B80183E3C6
:1020600092E00E94C41EFF24F394009709F4F12C1F
:10207000892B41F086E0F801A3E3B2E001900D92D4
:102080008A95E1F72F2D43E069E372E083E392E064
:102090000E945A100E94AB018F2D26960FB6F8941D
:1020A000DEBF0FBECDBFDF91CF911F910F91FF908B
:1020B00008950895FF920F931F93CF93DF93F82E07
:1020C000092F162FD72FC42F222349F081E08093A8
:1020D000F4010E94C9159093F3018093F20180915D
:1020E000F4018823A1F08091F2019091F3010E9404
:1020F000E115059760F0EF2DF02FA12FBD2F90E097
:1021000080E0D0E08C179D0744F01092F401DF913D
:10211000CF911F910F91FF900895219131912D93AF
:102120003D930196EFCF0E94E8170E948E0C0C940D
:10213000F4170E94F8170E943D0D0C9412180E948B
:1021400069150E94CF170E94760C0E9493100E947E
:1021500099100E94860CFBCF86E0EDEFF1E0DF01E5
:10216000982F1D929A95E9F7E7EFF1E0DF011D92B4
:102170008A95E9F70895CF93DF9300D000D00F92AE
:10218000CDB7DEB76B837C838D838C819D81892B5A
:1021900021F0CA0189238F3F51F480E081700F90B4
:1021A0000F900F900F900F90DF91CF9108958B813A
:1021B000F5CF0E94A90B811102C00E944E0C8DE048
:1021C00090E00E94D11E8093F5010895CF93C82F0F
:1021D0000E94AC10C093F5016C2F8DE090E0CF9180
:1021E0000C94DF1E81E0089581E0089581E0089558
:1021F000EF92FF920F931F93CF93DF937C01EB013C
:1022000080E3E8168AE5F806E9F030F4C7019A554C
:102210008A97A0F1C1E01DC0F1E3EF16FAE5FF06D1
:10222000C9F781E39AE50E94F610882389F0488176
:1022300059816A817B818C810E94BB10882341F087
:1022400081E019C080E39AE50E94F610811109C06F
:10225000C0E08C2FDF91CF911F910F91FF90EF90F5
:102260000895488159816A817B818C810E94BB10CD
:10227000882371F380E00E94E610EACFC7010E9434
:10228000F610882329F31091F5011123F9F011308C
:1022900009F445C00091F60127EF31E0412FBE015E
:1022A000C7010E94F410882399F2488159816A81FC
:1022B0007B818C810E94BB10C82F8091F601CC23BA
:1022C00009F458C08F5F8093F601C2CF48815981CD
:1022D0006A817B818C810E94BB10F701FF27E2514C
:1022E000FF4F9491A92FA295A695A695A370B0E053
:1022F000882371F09D0123503E4FF9018081892B85
:102300008083A950BE4F8C91E92FE82BEC93C2CF6C
:10231000A350BE4FE92FE0958C91E823F7CF488179
:1023200059816A817B818C810E94BB10482F8E2D40
:1023300067E00E94B21E292FE82FF0E086E090E0CF
:10234000821B910921E030E001C0220F8A95EAF753
:10235000DF01A350BE4F8C91442341F0822B8C931C
:10236000E950FE4F8081282B208394CF209528238D
:102370002C9390CF815018160CF4A5CF1092F60133
:1023800067EF71E08091F5010E94F210882331F02F
:102390008091F501882329F0813099F00E94AC10DA
:1023A00058CF07EF11E0F80181918F0181110E9450
:1023B0009217F1E00B3F1F07B1F780E00E949217E0
:1023C000EDCF8091F70180688093F70107EF11E06E
:1023D0008DEFE82E81E0F82EF80181918F010E94A7
:1023E0009217E016F106C1F7D9CFCF93DF93EC0136
:1023F000FB018281882309F433C1C430FDE5DF0786
:10240000C0F5CB3F9CE5D90730F49E0122503C45F6
:1024100024313105B0F50E94BC0B909332028093B9
:102420003102C1318CE5D80709F4EEC008F069C06B
:10243000C930ECE5DE0709F4D5C0C8F5C5308CE538
:10244000D80709F4C7C000F5C330ECE5DE0709F48E
:10245000B9C008F0BBC0C230DC4509F4ADC0809102
:102460003102909132020E94CA0B0E94B80580E0AE
:1024700008C0C236EDE5DE0771F2C63AFDE5DF07BA
:1024800051F2DF91CF910895809131028062C7307F
:102490009CE5D90709F493C0809131028061C8306E
:1024A000DC4508F48CC080913102806488C0809142
:1024B00031028B7FCD30FCE5DF0709F480C098F452
:1024C000809131028E7FCB309CE5D90709F477C02B
:1024D000809131028C60CC30DC4508F470C0809172
:1024E00031028D7F6CC0809131028F7ECF30FCE550
:1024F000DF0709F464C008F47BC0809131028F7D4E
:102500005EC0CE3F9CE5D90709F47AC050F5C531CD
:10251000FCE5DF0709F486C098F480913102837FDF
:10252000C3319CE5D90709F44AC008F471C00E9480
:10253000B80590913102892F97FB87F980583FC0E9
:10254000CC3FFCE5DF0709F449C008F055C0809195
:1025500032028160CB3FDC4509F081CF80933202AB
:102560007ECFC230EDE5DE0709F468C0A8F4C115DE
:102570008DE5D80709F452C0809132028360C130E2
:10258000DD4560F380913202982F909591708E7F97
:10259000892B90FB81F9E2CFC236EDE5DE0709F425
:1025A00051C0C63AFDE5DF0709F453C0C330DD452D
:1025B00009F055CF80E043C0809131028160809363
:1025C00031024DCF809131028260F9CF809131028A
:1025D0008460F5CF809131028860F1CF8091320222
:1025E0008260BCCF0E94B805809131028068E7CF3D
:1025F00080913102877FE3CF809132028E7FAECF10
:10260000809132028D7FAACF809131028F7BD7CF0C
:102610000E94B805809131028F77D1CF809132022C
:102620008C7F9CCF8091310282FB992790F921E029
:10263000922790FB82F990FB83F9C1CF81E00E9441
:10264000500C0DCF90913102892F8F7E94FF8061C5
:10265000B6CF90913102892F8E7F90FF8160AFCFEE
:1026600081E00FCFCF93DF93EB0186319C4511F5CD
:102670000E94C20A9A81992399F08A7A91E009F41A
:1026800090E090930302811109C089E20E949D0AA3
:102690000E94020B80E0DF91CF91089585E3F6CF91
:1026A00080910302811104C089E20E94A40AF0CF44
:1026B00085E3FBCF81E0EFCF0F931F93CF93DF93A1
:1026C000C42FD22FFC0182818823C9F040930602D7
:1026D0000E94C915909305028093040280E28C0F3A
:1026E000883008F050C0C77081E001C0880FCA95DB
:1026F000EAF7DF91CF911F910F910C946003109135
:102700000602141335C080910402909105020E94C4
:10271000E115883C910560F5C0E2CD0F1D17B9F0B9
:1027200080E2810F883040F4177081E001C0880F8B
:102730001A95EAF70E946703C83048F481E09D2F9C
:10274000977001C0880F9A95EAF70E946003802F66
:102750000E945803C830B8F4D77081E001C0880FD8
:10276000DA95EAF7DF91CF911F910F910C946703EF
:1027700080E28C0F883038F4C77081E001C0880F88
:10278000CA95EAF7EFCFDF91CF911F910F9108958E
:102790000F939C01CB01243F4CE5340759F1A8F479
:1027A000293DFCE53F0701F12A3D4CE53407D1F115
:1027B000283D3C4591F406E221EE41EE68ED7CE5D2
:1027C0000E945C1380E00F910895263FFCE53F07CF
:1027D000E9F0B0F0273F3C45F9F0FC018281882305
:1027E00039F110920602EFCF07E225EE45EE69EDD2
:1027F0007CE5E6CF06E221EE40EE64EF7CE5E0CF3B
:1028000007E225EE44EE65EF7CE5DACF06E221EE45
:1028100042EE66EF7CE5D4CF07E225EE46EE67EFA9
:102820007CE5CECF08E221E045EE6AED7CE5C8CF3D
:1028300081E0C9CF90934301809342010895909322
:102840000C0280930B020895E0910B02F0910C02B0
:10285000309721F00190F081E02D099480E00895F7
:10286000E0910B02F0910C02309799F020912B012E
:10287000222359F02091310227FF07C0DC012C915F
:1028800011962C93119726E02C930280F381E02D72
:10289000099408952091090230910A0228173907F6
:1028A00071F090930A0280930902E0910B02F0917B
:1028B0000C02309721F00680F781E02D09940895ED
:1028C00020910702309108022817390771F0909380
:1028D000080280930702E0910B02F0910C023097FE
:1028E00021F00084F185E02D09940895FC013296D1
:1028F00080912B01882321F0809131029EE187FF96
:1029000096E080E0915008F4089521912223D1F3BC
:102910008F5FF8CF662301F120912B012223F1F084
:102920002091310227FF1AC0462F469546954695BD
:102930004E3190F4677021E030E002C0220F331F67
:102940006A95E2F7840F911DFC01828190E02823B3
:10295000392381E0232B69F480E00895FC0132964D
:1029600008962191261721F0E817F907D1F7F4CF3F
:1029700081E008959C01FC0132969FEF80E0419137
:10298000461751F09F3F19F4411101C0982F8F5FF6
:102990008630A9F79F3F09F40895290F311D97FD4F
:1029A0003A95F90162830895FC01329608962191C7
:1029B000261303C0DF0111971C92E817F907B9F736
:1029C0000895E62FE695E695E695EE3168F4E80F72
:1029D000F92FF11D677021E030E001C0220F6A95E8
:1029E000EAF78281822B82830895E62FE695E695A9
:1029F000E695EE3170F4E80FF92FF11D677021E0D4
:102A000030E001C0220F6A95EAF7209582812823E1
:102A10002283089520912B01222329F02091310255
:102A200027FD0C94E1140C94BA1420912B0122235D
:102A300029F02091310227FD0C94F5140C94D41444
:102A4000FC01329680912B01882351F08091310254
:102A500087FF06C08EE1DF011D928A95E9F7089590
:102A600086E0F9CF08950C943215811105C081E0FC
:102A700080930D020C94331582E0FACF83E08093AB
:102A80000D020C9433150C94351581E080930D02E2
:102A90000C9433150C944515089508950C944D1518
:102AA000089508950C944C15CF930E9450150E94E0
:102AB0000E100E945115C0E08C2F0E94470F892BE9
:102AC00031F4CF5FC330C1F780E0CF91089581E04A
:102AD000FCCF08951F921FB61F9211248F939F93CE
:102AE000AF93BF9380910E02811113C080913F027A
:102AF00090914002A0914102B09142024196A11DE5
:102B0000B11D80933F0290934002A0934102B09385
:102B10004202BF91AF919F918F911F901FBE1F9056
:102B2000189580914702843031F10E94150210926D
:102B30000E0288E190E020E40FB6F894A895809307
:102B400060000FBE2093600083B7817F846083BFE5
:102B500083B7816083BF7894889583B78E7F83BF66
:102B60000FB6F894A895809160008861809360000A
:102B7000109260000FBE08950E94B8050C941902CF
:102B800082E084BD93E095BD9AEF97BD80936E007F
:102B900008952FB7F89480913F0290914002A09140
:102BA0004102B09142022FBF08952FB7F89460916F
:102BB0003F027091400280914102909142022FBFEA
:102BC00008959C014FB7F89480913F029091400284
:102BD000A0914102B09142024FBF821B930B089516
:102BE00078941F921FB61F9211248F939F93AF93D7
:102BF000BF9380913F0290914002A0914102B09119
:102C000042020196A11DB11D80933F0290934002A4
:102C1000A0934102B0934202BF91AF919F918F91D7
:102C20001F901FBE1F90189587E797E790930108A4
:102C30008093000888E19AE00FB6F894A8958093F5
:102C400060000FBE90936000FFCF80912F02089527
:102C500008950895CF93DF93EC0180912B01882391
:102C6000B1F18091310287FF32C060E282E080934F
:102C7000E9008FEF9091E800815095FD06C095ED39
:102C80009A95F1F700008111F5CF8091E80085FF5A
:102C90001BC080912B0170E050E040E0811104C026
:102CA00050E040E068E070E0CE010E94881880911A
:102CB000E8008E778093E80080E2FE01AFE0B2E0AA
:102CC00001900D928A95E1F7DF91CF91089568E028
:102CD00081E0CDCF0895089580914602811109C009
:102CE0000E94181A0E94751A8091E20084608093F5
:102CF000E20008951092460208950C9445156091E3
:102D0000430281E0611101C080E00C943E15909176
:102D1000470281E0943009F080E0609143020C9416
:102D2000431542E061EC81E00E94941942E261ECBB
:102D300082E00E94941942E061EC83E00E949419C1
:102D400042E160E885E00E94941942E161E884E094
:102D50000E9494199091470281E0943009F080E03C
:102D6000609143020C94351580914902833009F437
:102D700061C048F48130D1F1823009F4A3C084E00D
:102D800091E00C94001E8A3009F48BC08B3009F45A
:102D90006EC08930A1F780914802813281F780911D
:102DA0004C0290914D02029750F78091E800877F86
:102DB0008093E8008091E80082FF37C09091F30093
:102DC0008091F200029731F48091F100813011F08E
:102DD000863021F48091F10080932F028091E800E9
:102DE0008B778093E8000E94C819C9CF8091480270
:102DF000813A29F68091E800877F8093E8008091EE
:102E00004C0290914D02892B61F460E28FE092E0D8
:102E100070E00E94D7188091E8008B778093E800DB
:102E2000AECF60E090E080E0F3CF80914702811167
:102E3000C1CF089580914802813A09F0A0CF8091D6
:102E40004C0290914D02892B09F099CF8091E800B6
:102E5000877F8093E8008091E80080FFFCCF80911D
:102E60002B018093F1008091E8008E77BACF80919A
:102E70004802813209F083CF80914C0290914D023B
:102E8000892B09F07CCF8091E800877F8093E80050
:102E90000E94C81980914A0280932B010E94B805B4
:102EA0006ECF80914802813209F069CF8091E800AD
:102EB000877F8093E8000E94C81980914B0280931D
:102EC00030025DCF80914802813A09F058CF80915D
:102ED000E800877F8093E8008091E80080FFFCCFC6
:102EE00080913002BECF82E090E0909317018093F2
:102EF000160184E091E00C94B71D0895CF93DF9301
:102F000084E091E00E945E1DEC01209719F4DF91AE
:102F1000CF91089584E091E00E94871D0E947D1763
:102F20002197F3CFCF93C091E9002091EC00922F2D
:102F3000917020FD90E82091140120FF12C0CF7005
:102F4000C92B909105019F709093E9009091EB003F
:102F500090FF04C09091EE0097FD05C0CF70C09324
:102F6000E900CF9108959FEF2091E800915025FD51
:102F700006C025ED2A95F1F700009111F5CF809359
:102F8000F10084E091E00E94191D8091E80080FF2B
:102F9000E5CF8091E8008E778093E800DFCF84B79B
:102FA000877F84BF0FB6F894A895809160008861F0
:102FB00080936000109260000FBE80E890E00FB632
:102FC000F89480936100909361000FBE0C944A15B1
:102FD0000E94181A0E94751AE2EEF0E08081846067
:102FE000808378940C94FE1C8FE191E00C941F1464
:102FF000809147028530A9F480914702853011F015
:103000000C94BC150E949115809145028823A1F370
:103010000E945415882381F30E9472180E94B805FB
:10302000EBCF08950E947E1784E091E00C94471D39
:103030000C941A18292F33272330310519F168F41D
:103040002130310509F444C02230310509F445C06E
:1030500090E080E030E020E025C02132310549F1E8
:1030600022323105A9F780E490E029E232E06115CF
:103070007105C1F08BE390E02EEE31E06130710517
:1030800089F0E6CF99278130910581F0009729F0EA
:103090000297F1F6EEE2F1E002C0E0E6F1E08491A1
:1030A00090E09F01FA01318320830895E0E4F1E08C
:1030B000F6CF89E090E026E731E06115710591F3E4
:1030C00089E090E02FE831E06130710559F3C0CF1D
:1030D00082E190E02CED31E0E5CF88E790E024E656
:1030E00031E0E0CF80E189BD82E189BD09B400FE15
:1030F000FDCF8091D8008F7D8093D8008091E00033
:1031000082608093E0008091E00081FDFCCF089513
:10311000AF92BF92CF92DF92FF920F931F93CF9304
:10312000DF936C01EB018A010E94E719F82E8111EF
:1031300023C00115110539F0F80180819181C81B68
:10314000D90BC80ED91EB12CA12C2097A9F08091C3
:10315000E80085FD22C08091E8008E778093E8002A
:1031600001151105A1F0F80180819181A80EB91E09
:10317000B182A08285E0F82E8F2DDF91CF911F9133
:103180000F91FF90DF90CF90BF90AF9008950E9475
:10319000E7198823D1F2F82EEFCFF60181916F0164
:1031A0008093F1002197FFEFAF1ABF0ACECFFC0149
:1031B00080914E0290914F0286179707A0F06115FB
:1031C000710529F49091E8009E779093E80090E0D3
:1031D0006115710551F4911108C08091E80082FFDA
:1031E00034C080E00895BC01F2CF8091470288236B
:1031F000C1F18530C1F18091E80083FD30C080913C
:10320000E80082FDEACF8091E80080FFE1CF809165
:10321000F3002091F200382F6115710519F0283064
:10322000310558F091E02830310509F090E0209107
:10323000E8002E772093E800CBCF81918093F100B6
:10324000615071092F5F3F4FE7CF8091470288237C
:1032500041F0853041F08091E80083FFBECF81E0EE
:10326000089582E0089583E00895FC0180914E0264
:1032700090914F0286179707A0F06115710529F408
:103280008091E8008E778093E80090E061157105E9
:1032900051F4911108C08091E80082FF35C080E0B0
:1032A0000895BC01F2CF809147028823C9F185308F
:1032B000C9F18091E80083FD31C08091E80082FD72
:1032C000EACF8091E80080FFE1CF8091F300209168
:1032D000F200382F6115710519F02830310558F0CA
:1032E00091E02830310509F090E08091E8008E7778
:1032F0008093E800CBCF84918093F10031966150A8
:1033000071092F5F3F4FE6CF80914702882341F03C
:10331000853041F08091E80083FFBDCF81E00895C2
:1033200082E0089583E00895982F973028F08F70F9
:103330008093E90081E008959093E900242F762F8F
:1033400050E0981731F07091EC002091ED00509111
:10335000F00021FD02C09F5FE8CF3091EB003E7F7F
:103360003093EB003091ED003D7F3093ED003091D4
:10337000EB0031603093EB007093EC002093ED0094
:103380005093F0002091EE0027FDE5CF80E00895F6
:103390008091480287FF13C08091E80082FF06C039
:1033A0008091E8008B778093E80004C08091470209
:1033B0008111F2CF0895809147028823D9F380913B
:1033C000E80080FFF8CF8091E8008E77ECCF209165
:1033D000E4003091E50095E6A9012091EC00822FF0
:1033E000817020FF06C08091E80080FF06C080E069
:1033F00008952091E80022FD1AC080914702882399
:1034000089F0853089F08091EB0085FD0FC0209117
:10341000E4003091E50042175307F9F29150E1F6CC
:1034200084E0089582E0089583E0089581E008959E
:103430000E94861A0E948E1AE0EEF0E08081816080
:103440008083E8EDF0E080818F77808319BCA7ED61
:10345000B0E08C918E7F8C9380818F7E80831092E0
:10346000460208950F931F93CF93DF930E94861A0D
:103470000E948E1AC8EDD0E088818F77888388817A
:103480008068888388818F7D888319BC1092470269
:1034900010924302109245021092440200EE10E096
:1034A000F80180818B7F808388818160888342E0FE
:1034B00060E080E00E949419E1EEF0E080818E7F70
:1034C0008083E2EEF0E0808181608083808188608B
:1034D0008083F80180818E7F8083888180618883EA
:1034E000DF91CF911F910F910895E8EDF0E0808179
:1034F0008F7E8083E7EDF0E080818160808384E0CF
:1035000082BF81E0809346020C94321AE8EDF0E02D
:1035100080818E7F80831092E20008951092DA00FD
:103520001092E10008951F920F920FB60F9211248E
:103530002F933F934F935F936F937F938F939F93BB
:10354000AF93BF93EF93FF938091E10082FF0BC095
:103550008091E20082FF07C08091E1008B7F809321
:10356000E1000E94FD1C8091DA0080FF19C080916B
:10357000D80080FF15C08091DA008E7F8093DA003A
:103580008091D90080FF96C080E189BD82E189BD2C
:1035900009B400FEFDCF81E0809347020E946C16C3
:1035A0008091E10080FF19C08091E20080FF15C08A
:1035B0008091E2008E7F8093E2008091E200806142
:1035C0008093E2008091D80080628093D80019BC7B
:1035D00085E0809347020E947F168091E10084FF7E
:1035E0002BC08091E20084FF27C080E189BD82E189
:1035F00089BD89B5982F917080FFFBCF8091D8004D
:103600008F7D8093D8008091E1008F7E8093E100D0
:103610008091E2008F7E8093E2008091E2008160E1
:103620008093E20080914302882309F449C084E03A
:10363000809347020E9487168091E10083FF29C092
:103640008091E20083FF25C08091E100877F809315
:10365000E10082E080934702109243028091E100F2
:103660008E7F8093E1008091E2008E7F8093E20064
:103670008091E20080618093E20042E060E080E0BF
:103680000E9494198091F00088608093F0000E945D
:103690007D16FF91EF91BF91AF919F918F917F9197
:1036A0006F915F914F913F912F910F900FBE0F90AF
:1036B0001F90189519BC109247020E947A1670CF7D
:1036C0008091E30087FD93E090934702B3CF1F9270
:1036D0000F920FB60F9211242F933F934F935F9346
:1036E0006F937F938F939F93AF93BF93CF93DF930A
:1036F000EF93FF93D091E900DF708091EC00C82F29
:10370000C17080FDC0E81092E9008091F000877FD1
:103710008093F00078940E94AB1B1092E900809196
:10372000F00088608093F000CD2BCF70C093E9004B
:10373000FF91EF91DF91CF91BF91AF919F918F91C9
:103740007F916F915F914F913F912F910F900FBE9D
:103750000F901F9018951F93CF93DF93CDB7DEB7CF
:10376000AA970FB6F894DEBF0FBECDBF88E492E0F3
:103770002091F100FC012193CF01F2E080359F07F9
:10378000B9F70E94B4168091E80083FF1EC18091B2
:103790004802909149029A3008F017C1E92FF0E0F1
:1037A000EF5DF04E0C94BE1E803899F0823809F01F
:1037B0000CC180914C028F70873008F006C1809355
:1037C000E9008091EB0085FB882780F91092E900E1
:1037D00006C08091440290914502911182609091BF
:1037E000E800977F9093E8008093F1001092F10039
:1037F0008091E8008E77E5C0882309F4D3C0823039
:1038000009F0E3C080914A028111D6C080914C0238
:103810008F702FEF280F263008F0D7C08093E90073
:103820002091EB0020FFC8C0933031F48091EB0071
:1038300080628093EB00C0C09091EB009061909308
:10384000EB0021E030E001C0220F8A95EAF72093D7
:10385000EA001092EA008091EB008860EACF8111C3
:10386000B4C010914A021F778091E3008078812BC9
:103870008093E3008091E800877F8093E8000E94B6
:10388000C8198091E80080FFFCCF8091E300806838
:103890008093E30082E0111183E08093470295C09A
:1038A0008058823008F091C080914A0290914B027A
:1038B0008C3D23E09207A1F583E08A838AE2898325
:1038C0004FB7F894DE01139620E03EE051E2E32F7B
:1038D000F0E050935700E49120FF03C0E295EF70B1
:1038E0003F5FEF708E2F90E0EA30C0F0C7968D9367
:1038F0009D932F5F243159F74FBF8091E800877F58
:103900008093E8006AE270E0CE0101960E94D71829
:103910008091E8008B778093E80057C0C096E7CF8E
:1039200060914C0270914D02AE014F5F5F4F0E945B
:103930001818BC01892B09F448C09091E800977FC2
:103940009093E80089819A810E943519E1CF8038EF
:10395000E1F58091E800877F8093E8008091430241
:103960008093F10045CF811130C090914A0292308E
:1039700060F58091E800877F8093E8009093430290
:103980000E94C81980914302882311F084E005C089
:103990008091E30087FDFACF81E0809347020E9487
:1039A000911613C080914A02813079F481E09330FE
:1039B00009F080E0809345021092E9008091E800D0
:1039C000877F8093E8000E94C8198091E80083FFF8
:1039D0000AC08091E800877F8093E8008091EB0027
:1039E00080628093EB00AA960FB6F894DEBF0FBEFC
:1039F000CDBFDF91CF911F9108950895CF9380910E
:103A000047028823A1F0C091E900CF709091EC00AB
:103A1000892F817090FD80E8C82B1092E900809179
:103A2000E80083FD0E94AB1BCF70C093E900CF91EB
:103A3000089520914702243041F5FC0144895589BD
:103A400066897789452B462B472BF9F081818F704A
:103A50008093E9009091F3008091F200892B11F49A
:103A600080E008959091E8008091E8008E7780933F
:103A7000E80095FDF5CF0E94E719811107C09091EC
:103A8000E8009E779093E800089582E008952091E1
:103A90004702243091F4FC0144895589668977896D
:103AA000452B462B472B49F021812F702093E900AD
:103AB0002091E80020FD0C94191D089520914702E3
:103AC000243019F090E080E00895FC014489558984
:103AD00066897789452B462B472BA1F386818F700A
:103AE0008093E9008091E80082FFECCF9091F30091
:103AF0008091F200009731F42091E8002B77209319
:103B0000E80008959091F3008091F20008952091CB
:103B10004702243019F08FEF9FEF0895FC0144898C
:103B2000558966897789452B462B472BA1F38681DA
:103B30008F708093E9008091E80082FFECCF909134
:103B4000F3008091F200892B79F08091F10090E0F0
:103B50003091F3002091F200232B29F42091E8000A
:103B60002B772093E80008958FEF9FEFF1CF0F930D
:103B70001F93CF93DF93CDB7DEB728970FB6F89496
:103B8000DEBF0FBECDBF8C0180914702843059F556
:103B9000F80184899589A689B789892B8A2B8B2B73
:103BA00011F183858F708093E90088E0ECE2F1E009
:103BB000DE01119601900D928A95E1F750E040E008
:103BC00068E070E0CE0101960E94881850E040E065
:103BD00062E070E0C80142960E9488188091E80077
:103BE0008E778093E80028960FB6F894DEBF0FBE5C
:103BF000CDBFDF91CF911F910F9108950895089542
:103C0000CF93DF93EC018091E80083FF10C02881FF
:103C100080914C0290914D022817190641F4809131
:103C200049028132F1F030F4803209F450C0DF9162
:103C3000CF910895823209F47EC08332C1F780911A
:103C400048028132A1F78091E800877F8093E800E5
:103C50000E94C81960914A02CE01DF91CF910C9465
:103C6000FF1D80914802813A11F78091E800877F1B
:103C70008093E8008091E80080FFFCCF8C899D89CB
:103C8000AE89BF898093F100492F5A2F6B2F772778
:103C90004093F100AD01662777274093F1008B2F09
:103CA0009927AA27BB278093F100888D8093F10084
:103CB000898D8093F1008A8D8093F1008091E800D6
:103CC0008E778093E800DF91CF910C94C819809192
:103CD0004802813209F0ABCF8091E800877F809362
:103CE000E8008091E80082FF21C03091F10020912E
:103CF000F1009091F1008091F1003C8B2D8B9E8B17
:103D00008F8B8091F100888F8091F100898F809155
:103D1000F1008A8F8091E8008B778093E8000E9401
:103D2000C819CE01DF91CF910C94FE1D80914702FE
:103D30008111D7CF7CCF80914802813209F077CFB3
:103D40008091E800877F8093E8000E94C8198091E5
:103D50004A0290914B02998B888BCE01DF91CF91D3
:103D60000C94FE1D991B79E004C0991F961708F06A
:103D7000961B881F7A95C9F780950895EE0FFF1F4F
:103D80000590F491E02D0994FB01DC0104C08D91B4
:103D90000190801921F441505040C8F7881B990BBD
:103DA0000895F999FECF92BD81BDF89A992780B503
:103DB0000895A8E1B0E042E050E00C94051F262FE2
:103DC000F999FECF92BD81BDF89A019700B4021611
:103DD00039F01FBA20BD0FB6F894FA9AF99A0FBEBF
:103DE00008950396272F0E94E01E0E94DF1E252FB4
:103DF0000E94E01E242F0C94E01E0196272F0E94A3
:103E0000E01E0C94DF1EDC01CB01FC01F999FECF12
:103E100006C0F2BDE1BDF89A319600B40D92415052
:103E20005040B8F70895F894FFCFAC03AC03DD031E
:103E3000DD030C040C040C040C047004FC040B05DE
:103E40000B05D41BFC1BE51CFC1BE51C2F1C501C8C
:063E5000E51CA71CB31CD9
:103E5600C800C101028410000001051000000183A2
:103E6600080000010000000000000000000000251E
:103E7600162A166A1628166B16291601A1200000A6
:103E860000000200F5F6F731333534C6976694F430
:023E96003236C2
:00000001FF
